:020000040800F2
:100000000000022049120008991200089912000805
:1000100099120008991200089912000800000000C7
:10002000000000000000000000000000912D00080A
:100030009912000800000000812E0008C92E000857
:1000400099120008991200089912000899120008E4
:1000500099120008991200089912000899120008D4
:1000600099120008991200089912000899120008C4
:1000700099120008991200089912000899120008B4
:1000800099120008991200089912000899120008A4
:100090009912000899120008991200089912000894
:1000A0009912000899120008991200089912000884
:1000B0009912000899120008991200089912000874
:1000C0009912000899120008991200089912000864
:1000D0009912000899120008991200089912000854
:1000E0009912000899120008991200089912000844
:1000F0009912000899120008991200089912000834
:100100009912000899120008991200089912000823
:100110009912000899120008991200089912000813
:100120009912000899120008991200089912000803
:1001300099120008991200089912000899120008F3
:1001400099120008991200089912000899120008E3
:1001500099120008991200089912000899120008D3
:1001600099120008991200089912000899120008C3
:100170009912000899120008991200080000000066
:08018000991200089912000811
:1001900053B94AB9002908BF00281CBF4FF0FF31EE
:1001A0004FF0FF3000F00CB8ADF1080C6DE904CE53
:1001B00003F068F8DDF804E0DDE9022304B07047DD
:1001C000704700BF80B400AF00BFBD4680BC704721
:1001D00080B500AF0E4B1B680D4A43F400731360EB
:1001E0000B4B1B680A4A43F480631360084B1B687F
:1001F000074A43F480731360032000F0FBF80F20DC
:1002000000F00EF800F006F80023184680BD00BF8D
:10021000003C024080B400AF00BFBD4680BC7047C8
:1002200080B582B000AF7860124B1A68124B1B7811
:1002300019464FF47A73B3FBF1F3B2FBF3F31846AC
:1002400000F0FFF80346002B01D001230EE07B688D
:100250000F2B0AD8002279684FF0FF3000F0D5F854
:10026000064A7B681360002300E001231846083724
:10027000BD4680BD000000200800002004000020D2
:1002800080B400AF024B1B681846BD4680BC704767
:100290001000002080B485B000AF78607B6803F068
:1002A0000703FB600C4BDB68BB60BA684FF6FF03CB
:1002B0001340BB60FB681A02BB68134343F0BF6383
:1002C00043F40033BB60044ABB68D36000BF1437FB
:1002D000BD4680BC704700BF00ED00E080B400AFB9
:1002E000044BDB681B0A03F007031846BD4680BCBD
:1002F000704700BF00ED00E080B483B000AF03465C
:100300003960FB7197F90730002B0ADB3B68DAB2E2
:100310000C4997F907301201D2B20B4483F800233D
:100320000AE03B68DAB20849FB7903F00F03043BAB
:100330001201D2B20B441A7600BF0C37BD4680BC06
:10034000704700BF00E100E000ED00E080B489B03C
:1003500000AFF860B9607A60FB6803F00703FB61E7
:10036000FB69C3F10703042B28BF0423BB61FB69AE
:100370000433062B02D9FB69033B00E000237B61B9
:100380004FF0FF32BB6902FA03F3DA43BB681A404D
:100390007B699A404FF0FF317B6901FA03F3D9433F
:1003A0007B680B40134318462437BD4680BC70471A
:1003B00080B582B000AF78607B68013BB3F1807F8D
:1003C00001D301230FE00A4A7B68013B53600F21F0
:1003D0004FF0FF30FFF790FF054B00229A60044B6F
:1003E00007221A60002318460837BD4680BD00BFAB
:1003F00010E000E080B582B000AF78607868FFF769
:1004000049FF00BF0837BD4680BD80B586B000AF4C
:100410000346B9607A60FB7300237B61FFF75EFFE0
:1004200078617A68B9687869FFF790FF024697F9B2
:100430000F3011461846FFF75FFF00BF1837BD4663
:1004400080BD80B582B000AF78607868FFF7B0FFFC
:10045000034618460837BD4680BD000080B489B009
:1004600000AF7860396000237B6100233B6100238B
:10047000BB610023FB616BE10122FB6902FA03F31C
:100480007B613B681B687A6913403B613A697B6911
:100490009A4240F05A813B685B6803F00303012BEA
:1004A00005D03B685B6803F00303022B30D17B6807
:1004B0009B68BB61FB695B00032202FA03F3DB4329
:1004C000BA691340BB613B68DA68FB695B0002FAFA
:1004D00003F3BA691343BB617B68BA699A607B68AE
:1004E0005B68BB610122FB6902FA03F3DB43BA6973
:1004F0001340BB613B685B681B0903F00102FB69A9
:1005000002FA03F3BA691343BB617B68BA695A60A4
:100510003B685B6803F00303032B17D07B68DB6841
:10052000BB61FB695B00032202FA03F3DB43BA6998
:100530001340BB613B689A68FB695B0002FA03F3F6
:10054000BA691343BB617B68BA69DA603B685B6870
:1005500003F00303022B23D1FB69DA087B6808321E
:1005600053F82230BB61FB6903F007039B000F22A5
:1005700002FA03F3DB43BA691340BB613B681A69B3
:10058000FB6903F007039B0002FA03F3BA69134304
:10059000BB61FB69DA087B680832B96943F822104D
:1005A0007B681B68BB61FB695B00032202FA03F3F3
:1005B000DB43BA691340BB613B685B6803F003022D
:1005C000FB695B0002FA03F3BA691343BB617B6802
:1005D000BA691A603B685B6803F44033002B00F093
:1005E000B4800023FB605F4B5B6C5E4A43F4804346
:1005F00053645C4B5B6C03F48043FB60FB685A4ABA
:10060000FB699B08023352F82330BB61FB6903F09E
:1006100003039B000F2202FA03F3DB43BA69134082
:10062000BB617B68514A93422BD07B68504A93420E
:1006300025D07B684F4A93421FD07B684E4A934235
:1006400019D07B684D4A934213D07B684C4A934241
:100650000DD07B684B4A934207D07B684A4A93424D
:1006600001D107230EE008230CE006230AE005234E
:1006700008E0042306E0032304E0022302E0012350
:1006800000E00023FA6902F0030292009340BA6985
:100690001343BB613449FB699B080233BA6941F8D3
:1006A00023203A4B9B68BB613B69DB43BA6913402B
:1006B000BB613B685B6803F48013002B03D0BA690D
:1006C0003B691343BB61314ABB6993602F4BDB68C5
:1006D000BB613B69DB43BA691340BB613B685B6844
:1006E00003F40013002B03D0BA693B691343BB61C9
:1006F000264ABB69D360254B5B68BB613B69DB4322
:10070000BA691340BB613B685B6803F40033002B9C
:1007100003D0BA693B691343BB611C4ABB69536090
:100720001A4B1B68BB613B69DB43BA691340BB6171
:100730003B685B6803F48033002B03D0BA693B69E4
:100740001343BB61114ABB691360FB690133FB6151
:10075000FB690F2B7FF690AE00BF00BF2437BD466C
:1007600080BC704700380240003801400000024061
:100770000004024000080240000C02400010024049
:100780000014024000180240001C0240003C0140DE
:1007900080B483B000AF78600B467B8013467B70DB
:1007A0007B78002B03D07A887B689A6103E07B8892
:1007B0001A047B689A6100BF0C37BD4680BC704745
:1007C00080B485B000AF78600B467B807B685B6946
:1007D000FB607A88FB6813401A04FB68D9437B8866
:1007E0000B401A437B689A6100BF1437BD4680BC3A
:1007F0007047000080B586B000AF78607B68002B42
:1008000001D1012367E27B681B6803F00103002B21
:1008100075D0884B9B6803F00C03042B0CD0854BE0
:100820009B6803F00C03082B12D1824B5B6803F426
:100830008003B3F5800F0BD17E4B1B6803F40033AC
:10084000002B5BD07B685B68002B57D1012342E211
:100850007B685B68B3F5803F06D1764B1B68754AB1
:1008600043F4803313601DE07B685B68B3F5A02F11
:100870000CD1704B1B686F4A43F4802313606D4B9F
:100880001B686C4A43F4803313600BE0694B1B68B0
:10089000684A23F480331360664B1B68654A23F46F
:1008A000802313607B685B68002B13D0FFF7E8FCA4
:1008B000386108E0FFF7E4FC02463B69D31A642B79
:1008C00001D9032307E25B4B1B6803F40033002BC1
:1008D000F0D014E0FFF7D4FC386108E0FFF7D0FC5B
:1008E00002463B69D31A642B01D90323F3E1514B30
:1008F0001B6803F40033002BF0D100E000BF7B68DD
:100900001B6803F00203002B63D04A4B9B6803F083
:100910000C03002B0BD0474B9B6803F00C03082BF8
:100920001CD1444B5B6803F48003002B16D1414B70
:100930001B6803F00203002B05D07B68DB68012BEA
:1009400001D00123C7E13B4B1B6823F0F8027B6811
:100950001B69DB00374913430B603AE07B68DB68B7
:10096000002B20D0344B01221A60FFF789FC38613C
:1009700008E0FFF785FC02463B69D31A022B01D938
:100980000323A8E12B4B1B6803F00203002BF0D0DC
:10099000284B1B6823F0F8027B681B69DB002549A4
:1009A00013430B6015E0244B00221A60FFF768FC2C
:1009B000386108E0FFF764FC02463B69D31A022B5A
:1009C00001D9032387E11B4B1B6803F00203002BB3
:1009D000F0D17B681B6803F00803002B36D07B68DE
:1009E0005B69002B16D0154B01221A60FFF748FCFB
:1009F000386108E0FFF744FC02463B69D31A022B3A
:100A000001D9032367E10B4B5B6F03F00203002B5B
:100A1000F0D01BE0094B00221A60FFF731FC38616F
:100A20000EE0FFF72DFC02463B69D31A022B07D9D3
:100A3000032350E10038024000004742800E474245
:100A4000884B5B6F03F00203002BEAD17B681B68C5
:100A500003F00403002B00F097800023FB75814B0B
:100A60001B6C03F08053002B0FD10023BB607D4B28
:100A70001B6C7C4A43F0805313647A4B1B6C03F06D
:100A80008053BB60BB680123FB75774B1B6803F485
:100A90008073002B18D1744B1B68734A43F4807326
:100AA0001360FFF7EDFB386108E0FFF7E9FB024652
:100AB0003B69D31A022B01D903230CE16A4B1B6853
:100AC00003F48073002BF0D07B689B68012B06D168
:100AD000644B1B6F634A43F0010313671CE07B68A0
:100AE0009B68052B0CD15F4B1B6F5E4A43F00403E0
:100AF00013675C4B1B6F5B4A43F0010313670BE00A
:100B0000584B1B6F574A23F001031367554B1B6F5C
:100B1000544A23F0040313677B689B68002B15D0AD
:100B2000FFF7AEFB38610AE0FFF7AAFB02463B691C
:100B3000D31A41F28832934201D90323CBE0494BC7
:100B40001B6F03F00203002BEED014E0FFF798FBBD
:100B500038610AE0FFF794FB02463B69D31A41F281
:100B60008832934201D90323B5E03E4B1B6F03F05B
:100B70000203002BEED1FB7D012B05D1394B1B6C01
:100B8000384A23F0805313647B689B69002B00F084
:100B9000A180344B9B6803F00C03082B5CD07B686E
:100BA0009B69022B41D1314B00221A60FFF768FB91
:100BB000386108E0FFF764FB02463B69D31A022B59
:100BC00001D9032387E0274B1B6803F00073002B38
:100BD000F0D17B68DA697B681B6A1A437B685B6AC1
:100BE0009B011A437B689B6A5B08013B1B041A4309
:100BF0007B68DB6A1B061B4913434B601B4B0122BE
:100C00001A60FFF73DFB386108E0FFF739FB024649
:100C10003B69D31A022B01D903235CE0114B1B68FB
:100C200003F00073002BF0D054E0104B00221A6048
:100C3000FFF726FB386108E0FFF722FB02463B691D
:100C4000D31A022B01D9032345E0064B1B6803F09E
:100C50000073002BF0D13DE07B689B69012B07D12D
:100C6000012338E000380240007000406000474235
:100C70001B4B5B68FB607B689B69012B28D0FB6882
:100C800003F480027B68DB699A4221D1FB6803F0A0
:100C90003F027B681B6A9A421AD1FA6847F6C07312
:100CA00013407A68526A9201934211D1FB6803F4AF
:100CB00040327B689B6A5B08013B1B049A4207D168
:100CC000FB6803F070627B68DB6A1B069A4201D006
:100CD000012300E0002318461837BD4680BD00BF41
:100CE0000038024080B584B000AF786039607B681E
:100CF000002B01D10123CCE0684B1B6803F00703F4
:100D00003A689A420CD9654B3A68D2B21A70634B72
:100D10001B6803F007033A689A4201D00123B8E048
:100D20007B681B6803F00203002B20D07B681B68E4
:100D300003F00403002B05D0594B9B68584A43F439
:100D4000E05393607B681B6803F00803002B05D019
:100D5000534B9B68524A43F460439360504B9B68EB
:100D600023F0F0027B689B684D4913438B607B68DE
:100D70001B6803F00103002B44D07B685B68012BE8
:100D800007D1474B1B6803F40033002B19D1012313
:100D90007FE07B685B68022B03D07B685B68032B7A
:100DA00007D13F4B1B6803F00073002B09D10123CF
:100DB0006FE03B4B1B6803F00203002B01D10123C2
:100DC00067E0374B9B6823F003027B685B6834491C
:100DD00013438B60FFF754FAF8600AE0FFF750FA0C
:100DE0000246FB68D31A41F28832934201D90323A9
:100DF0004FE02B4B9B6803F00C027B685B689B0009
:100E00009A42EBD1254B1B6803F007033A689A42DC
:100E10000CD2224B3A68D2B21A70204B1B6803F0F6
:100E200007033A689A4201D0012332E07B681B68CD
:100E300003F00403002B08D0194B9B6823F4E05205
:100E40007B68DB68164913438B607B681B6803F083
:100E50000803002B09D0124B9B6823F460427B6887
:100E60001B69DB000E4913438B6000F021F802463A
:100E70000B4B9B681B0903F00F030A49CB5C22FA5A
:100E800003F3094A1360094B1B681846FFF7C8F9BA
:100E9000002318461037BD4680BD00BF003C02400D
:100EA0000038024024360008000000200400002022
:100EB0002DE9B04F94B000AF00237B640023FB64A6
:100EC00000233B640023BB647C4B9B6803F00C0352
:100ED000082B0DD0082B00F2E780002B02D0042B4A
:100EE00003D0E1E0764BBB64E1E0764BBB64DEE02F
:100EF000724B5B6803F03F037B64704B5B6803F4E9
:100F00008003002B65D06D4B5B689B090022BB639F
:100F1000FA63BB6BC3F308033B6300237B63D7E92E
:100F20000C4522462B464FF000004FF000015901BE
:100F300041EAD261500102460B462146511A3961FD
:100F4000294663EB01037B614FF000024FF0000381
:100F5000D7E904AB59468B01514643EA91635146A8
:100F60008A01D446B2EB0C08594663EB01094FF0F5
:100F700000024FF000034FEAC90343EA58734FEAF7
:100F8000C80290469946234618EB0303BB602B46E4
:100F900049EB0303FB604FF000024FF00003D7E979
:100FA000024529464B0220462946044643EAD453CB
:100FB00001464A02104619467B6C0022BB62FA6267
:100FC000D7E90A23FFF7E4F802460B461346FB6411
:100FD0005CE03A4B5B689B09002218461146C0F35F
:100FE00008033B6200237B62D7E9088942464B46EF
:100FF0004FF000004FF00001590141EAD261500169
:1010000002460B46C446B2EB0C0A404649468C46A3
:1010100063EB0C0B4FF000024FF000034FEA8B1311
:1010200043EA9A634FEA8A12B2EB0A0463EB0B05B8
:101030004FF000024FF00003EB0043EA5473E2006C
:1010400014461D460346E3183B600B4645EB03037D
:101050007B604FF000024FF00003D7E900452946BE
:101060008B0220462946044643EA945301468A02ED
:10107000104619467B6C0022BB61FA61D7E9062352
:10108000FFF786F802460B461346FB640B4B5B6882
:101090001B0C03F0030301335B003B64FA6C3B6CF5
:1010A000B2FBF3F3BB6402E0054BBB6400BFBB6C57
:1010B00018465037BD46BDE8B08F00BF003802402B
:1010C0000024F40000127A0080B500AFFFF780F82A
:1010D00000F004F800F06CF800BF80BD80B594B05B
:1010E00000AF07F1200330220021184602F046FA33
:1010F00007F10C0300221A605A609A60DA601A61E4
:101100000023BB60284B1B6C274A43F080531364B9
:10111000254B1B6C03F08053BB60BB6800237B60D6
:10112000224B1B68214A43F4804313601F4B1B680A
:1011300003F480437B607B6801233B624FF4803380
:101140007B620223BB634FF48003FB6308233B6491
:101150004FF4A8737B640223BB640723FB6407F18D
:1011600020031846FFF746FB0346002B01D000F092
:1011700065F80F23FB6002233B6100237B614FF482
:10118000A053BB614FF48053FB6107F10C030521B1
:101190001846FFF7A7FD0346002B01D000F04EF8DC
:1011A00000BF5037BD4680BD00380240007000408F
:1011B00080B586B000AF3B1D00221A605A609A606D
:1011C000DA601A6100233B600F4B1B6B0E4A43F041
:1011D000020313630C4B1B6B03F002033B603B6881
:1011E00004237B600123BB600023FB6000233B6181
:1011F0003B1D19460548FFF731F900F009F800BF1B
:101200001837BD4680BD00BF0038024000040240D0
:1012100080B500AF002204210248FFF7B9FA00BFF1
:1012200080BD00BF0004024080B500AF0421024829
:10123000FFF7C6FA00BF80BD0004024080B400AFD3
:1012400072B600BF00BFFDE7DFF834D0FEF7BAFF8B
:101250000C480D490D4A002302E0D458C450043311
:10126000C4188C42F9D30A4A0A4C002301E01360E7
:101270000432A242FBD302F089F900F01BF8704758
:101280000000022000000020100000203C36000872
:1012900010000020B4510020FEE780B582B000AFFE
:1012A0007860FFF7C1FF4FF4FA7000F0DBFD00BF7C
:1012B000F7E7000080B584B002AFFFF705FF002319
:1012C00001930123009300234FF4807209490A48D7
:1012D00000F09CFC78607B68012B01D0FFF7AEFF2B
:1012E00000F0E4FDFFF7AAFF002318460837BD46CB
:1012F00080BD00BF083600089B12000880B483B090
:1013000000AF4FF0BF0383F31188BFF36F8FBFF3BC
:101310004F8F7B6000BF00BFFDE780B485B000AF9A
:10132000786039604FF0BF0383F31188BFF36F8F8C
:10133000BFF34F8FFB6000BF00BFFDE780B483B0F9
:1013400000AF78607B6803F108027B685A607B68B5
:101350004FF0FF329A607B6803F108027B68DA6025
:101360007B6803F108027B681A617B6800221A60BF
:1013700000BF0C37BD4680BC704780B483B000AF5F
:1013800078607B6800221A6100BF0C37BD4680BCC4
:10139000704780B485B000AF786039607B685B6867
:1013A000FB603B68FA685A60FB689A683B689A6021
:1013B000FB689B683A685A60FB683A689A603B68C9
:1013C0007A681A617B681B685A1C7B681A6000BFC8
:1013D0001437BD4680BC704780B485B000AF7860DC
:1013E00039603B681B68BB60BB68B3F1FF3F03D14A
:1013F0007B681B69FB600CE07B680833FB6002E0E4
:10140000FB685B68FB60FB685B681B68BA689A42B4
:10141000F6D2FB685A683B685A603B685B683A687A
:101420009A603B68FA689A60FB683A685A603B6861
:101430007A681A617B681B685A1C7B681A6000BF57
:101440001437BD4680BC704780B485B000AF78606B
:101450007B681B69FB607B685B687A6892689A604E
:101460007B689B687A6852685A60FB685B687A6838
:101470009A4203D17B689A68FB685A607B680022B5
:101480001A61FB681B685A1EFB681A60FB681B68C0
:1014900018461437BD4680BC7047000080B584B044
:1014A00000AF786039607B68FB6001F0B5FCFB68D9
:1014B0001A68FB68DB6BF968096C01FB03F31A44DB
:1014C000FB689A60FB6800229A63FB681A68FB68F5
:1014D0005A60FB681A68FB68DB6B013BF968096CB2
:1014E00001FB03F31A44FB68DA60FB68FF2283F810
:1014F0004420FB68FF2283F845203B68002B14D171
:10150000FB681B69002B1AD0FB681033184600F0EB
:1015100005FF0346002B12D00C4B4FF080521A608F
:10152000BFF34F8FBFF36F8F09E0FB68103318468E
:10153000FFF704FFFB6824331846FFF7FFFE01F0B6
:1015400085FC012318461037BD4680BD04ED00E040
:1015500080B58AB002AFF860B9601346FB71FB68D2
:10156000BA6802FB03F3FB61FB694833184601F0DC
:10157000EFFCB861BB69002B0DD0BB697B617B6957
:1015800048337B61FA79BB69009313467A69B9687D
:10159000F86800F005F8BB6918462037BD4680BDE5
:1015A00080B584B000AFF860B9607A60FB70BB684A
:1015B000002B03D1BB69BA691A6002E0BB697A6883
:1015C0001A60BB69FA68DA63BB69BA681A640121F8
:1015D000B869FFF763FF00BF1037BD4680BD00004C
:1015E00080B58AB000AFF860B9607A603B600023D4
:1015F0007B62FB683B6201F00FFC3B6A9A6B3B6AC3
:10160000DB6B9A4202D33B68022B29D13A68B96856
:10161000386A00F08FF9F8613B6A5B6A002B10D0E2
:101620003B6A2433184600F079FE0346002B13D0A2
:101630003F4B4FF080521A60BFF34F8FBFF36F8F55
:101640000AE0FB69002B07D0394B4FF080521A603B
:10165000BFF34F8FBFF36F8F01F0F8FB012363E0FF
:101660007B68002B03D101F0F1FB00235CE07B6A77
:10167000002B06D107F11403184600F0A5FE012344
:101680007B6201F0E3FB00F04FFC01F0C5FB3B6A1D
:1016900093F844305BB2B3F1FF3F03D13B6A0022C1
:1016A00083F844203B6A93F845305BB2B3F1FF3FC7
:1016B00003D13B6A002283F8452001F0C7FB3A1DA5
:1016C00007F114031146184600F094FE0346002B60
:1016D00024D1386A00F026FA0346002B18D03B6A62
:1016E00010337A681146184600F0E4FD386A00F0BD
:1016F000B1F900F027FC0346002B7FF47CAF0C4BC4
:101700004FF080521A60BFF34F8FBFF36F8F72E7B5
:10171000386A00F09FF900F015FC6CE7386A00F0B9
:1017200099F900F00FFC002318462837BD4680BD0C
:1017300004ED00E080B58CB000AFF860B9607A606D
:101740003B60FB68BB62EFF311824FF0BF0383F392
:101750001188BFF36F8FBFF34F8FBA617B61BB6995
:101760007B62BB6A9A6BBB6ADB6B9A4202D33B68B3
:10177000022B2FD1BB6A93F8453087F82330BB6A20
:101780009B6BFB613A68B968B86A00F0D3F897F9C7
:101790002330B3F1FF3F12D1BB6A5B6A002B16D036
:1017A000BB6A2433184600F0B9FD0346002B0ED067
:1017B0007B68002B0BD07B6801221A6007E097F84A
:1017C00023300133DBB25AB2BB6A83F845200123D0
:1017D000FB6201E00023FB627B6A3B613B6983F3B0
:1017E000118800BFFB6A18463037BD4680BD000037
:1017F00080B58AB000AFF860B9607A6000237B6280
:10180000FB683B6201F008FB3B6A9B6BFB61FB6979
:10181000002B1FD0B968386A00F0F6F8FB695A1E31
:101820003B6A9A633B6A1B69002B0FD03B6A1033FB
:10183000184600F073FD0346002B07D03C4B4FF0D9
:1018400080521A60BFF34F8FBFF36F8F01F0FEFA23
:10185000012369E07B68002B03D101F0F7FA002334
:1018600062E07B6A002B06D107F11403184600F0F2
:10187000ABFD01237B6201F0E9FA00F055FB01F0BA
:10188000CBFA3B6A93F844305BB2B3F1FF3F03D12C
:101890003B6A002283F844203B6A93F845305BB2F0
:1018A000B3F1FF3F03D13B6A002283F8452001F0EA
:1018B000CDFA3A1D07F114031146184600F09AFDBF
:1018C0000346002B23D1386A00F016F90346002B9B
:1018D00017D03B6A24337A681146184600F0EAFCB8
:1018E000386A00F0B7F800F02DFB0346002B89D1D1
:1018F0000F4B4FF080521A60BFF34F8FBFF36F8FC3
:1019000080E7386A00F0A6F800F01CFB7AE7386A36
:1019100000F0A0F800F016FB386A00F0EDF803467E
:10192000002B3FF46FAF002318462837BD4680BD1B
:1019300004ED00E080B586B000AFF860B9607A6071
:1019400000237B61FB689B6B3B61FB681B6C002B7E
:101950000DD1FB681B68002B4DD1FB689B681846B6
:1019600000F06EFE7861FB6800229A6043E07B68BD
:10197000002B19D1FB685868FB681B6C1A46B968C4
:1019800001F028FEFB685A68FB681B6C1A44FB6870
:101990005A60FB685A68FB689B689A422BD3FB68C5
:1019A0001A68FB685A6026E0FB68D868FB681B6C05
:1019B0001A46B96801F00EFEFB68DA68FB681B6C1A
:1019C0005B421A44FB68DA60FB68DA68FB681B68F4
:1019D0009A4207D2FB689A68FB681B6C5B421A4408
:1019E000FB68DA607B68022B05D13B69002B02D0D3
:1019F0003B69013B3B613B695A1CFB689A637B690D
:101A000018461837BD4680BD80B582B000AF7860FB
:101A100039607B681B6C002B18D07B68DA687B68A8
:101A20001B6C1A447B68DA607B68DA687B689B68A9
:101A30009A4203D37B681A687B68DA607B68D9684E
:101A40007B681B6C1A46386801F0C4FD00BF08377C
:101A5000BD4680BD80B584B000AF786001F0DCF990
:101A60007B6893F84530FB7311E07B685B6A002B61
:101A700012D07B682433184600F050FC0346002B3C
:101A800001D000F0FDFCFB7B013BDBB2FB7397F95F
:101A90000F30002BE9DC00E000BF7B68FF2283F8F9
:101AA000452001F0D3F901F0B7F97B6893F8443091
:101AB000BB7311E07B681B69002B12D07B6810336D
:101AC000184600F02BFC0346002B01D000F0D8FC98
:101AD000BB7B013BDBB2BB7397F90E30002BE9DC1B
:101AE00000E000BF7B68FF2283F8442001F0AEF9DC
:101AF00000BF1037BD4680BD80B584B000AF7860B0
:101B000001F08AF97B689B6B002B02D10123FB60FB
:101B100001E00023FB6001F099F9FB6818461037DB
:101B2000BD4680BD80B584B000AF786001F074F927
:101B30007B689A6B7B68DB6B9A4202D10123FB6066
:101B400001E00023FB6001F081F9FB6818461037C3
:101B5000BD4680BD80B485B000AF78603960002399
:101B6000FB6014E00E4AFB6852F83330002B0BD1B7
:101B70000B49FB683A6841F83320094AFB68DB00EF
:101B800013447A685A6006E0FB680133FB60FB6827
:101B9000072BE7D900BF00BF1437BD4680BC704794
:101BA0001400002080B586B000AFF860B9607A609C
:101BB000FB687B6101F030F97B6993F844305BB2DC
:101BC000B3F1FF3F03D17B69002283F844207B6996
:101BD00093F845305BB2B3F1FF3F03D17B6900223C
:101BE00083F8452001F032F97B699B6B002B06D10D
:101BF0007B6924337A68B968184600F071FB78690C
:101C0000FFF728FF00BF1837BD4680BD80B58CB0F8
:101C100004AFF860B9603B601346FB80FB889B0013
:101C2000184601F095F978617B69002B0ED054209D
:101C300001F08EF9F861FB69002B03D0FB697A692A
:101C40001A6305E0786901F023FA01E00023FB61E3
:101C5000FB69002B13D0FA8800230393FB690293DE
:101C6000FB6A0193BB6A00933B68B968F86800F0AF
:101C70000EF8F86900F08AF80123BB6102E04FF02A
:101C8000FF33BB61BB6918462037BD4680BD80B5B8
:101C900086B000AFF860B9607A603B60BB6A186BD1
:101CA0007B689B001A46A52101F068FCBB6A1A6B91
:101CB0007B6803F18043013B9B0013443B613B691C
:101CC00023F007033B61BB68002B1FD000237B611F
:101CD00012E0BA687B6913441978BA6A7B691344C5
:101CE00034330A461A70BA687B6913441B78002B98
:101CF00006D07B6901337B617B690F2BE9D900E05A
:101D000000BFBB6A002283F8432003E0BB6A0022C5
:101D100083F834203B6A042B01D904233B62BB6A5D
:101D20003A6ADA62BB6A3A6A5A64BB6A00229A6407
:101D3000BB6A04331846FFF720FBBB6A183318460A
:101D4000FFF71BFBBB6ABA6A1A613B6AC3F1050263
:101D5000BB6A9A61BB6ABA6A5A62BB6A0022DA64D9
:101D6000BB6A002283F850203A68F968386900F0AD
:101D7000C7FF0246BB6A1A607B6A002B02D07B6AEF
:101D8000BA6A1A6000BF1837BD4680BD80B582B000
:101D900000AF786001F040F82B4B1B6801332A4AF2
:101DA00013602A4B1B68002B09D1284A7B681360FB
:101DB000254B1B68012B10D100F086FB0DE0244B56
:101DC0001B68002B09D1214B1B68DA6A7B68DB6A30
:101DD0009A4202D81D4A7B6813601E4B1B68013370
:101DE0001C4A13607B68DA6A1B4B1B689A4203D952
:101DF0007B68DB6A184A13607B68DA6A13469B00CB
:101E000013449B00154A1A447B6804331946104654
:101E1000FFF7BFFA01F01AF80D4B1B68002B0ED02C
:101E20000A4B1B68DA6A7B68DB6A9A4207D20C4B62
:101E30004FF080521A60BFF34F8FBFF36F8F00BF18
:101E40000837BD4680BD00BF2C0100205400002093
:101E500038010020480100203401002058000020F3
:101E600004ED00E080B584B000AF78600023FB6033
:101E70007B68002B08D000F057F80021786800F04C
:101E80002BFC00F05FF8F860FB68002B07D1064BD5
:101E90004FF080521A60BFF34F8FBFF36F8F00BFB8
:101EA0001037BD4680BD00BF04ED00E080B584B0B2
:101EB00002AF174B019300230093002380221549A2
:101EC0001548FFF7A3FE78607B68012B02D100F074
:101ED00057FC78607B68012B15D14FF0BF0383F36B
:101EE0001188BFF36F8FBFF34F8F3B6000BF0B4B69
:101EF0004FF0FF321A600A4B01221A60094B002290
:101F00001A6000F069FF00BF0837BD4680BD00BF02
:101F1000500100200C360008992400084C010020D4
:101F2000380100203001002080B400AF044B1B6852
:101F30000133034A136000BFBD4680BC704700BF39
:101F40005401002080B584B000AF0023FB60002363
:101F5000BB6000F061FF394B1B68013B374A1360DF
:101F6000364B1B68002B62D1354B1B68002B5ED0B3
:101F70002FE0344BDB68DB68FB60FB6818331846E6
:101F8000FFF762FAFB6804331846FFF75DFAFB6857
:101F9000DA6A2D4B1B689A4203D9FB68DB6A2A4A2E
:101FA0001360FB68DA6A13469B0013449B00274AC0
:101FB0001A44FB68043319461046FFF7EAF9FB6838
:101FC000DA6A234B1B68DB6A9A4202D3214B012257
:101FD0001A601C4B1B68002BCBD1FB68002B01D077
:101FE00000F0F0FA1C4B1B687B607B68002B10D064
:101FF00000F044F80346002B02D0164B01221A6071
:102000007B68013B7B607B68002BF1D1124B002287
:102010001A60104B1B68002B09D00123BB600F4BCB
:102020004FF080521A60BFF34F8FBFF36F8F00F0F5
:102030000DFFBB6818461037BD4680BD5401002017
:102040002C010020EC00002034010020580000206A
:1020500054000020400100203C01002004ED00E07D
:1020600080B483B000AF044B1B687B607B6818466C
:102070000C37BD4680BC70473001002080B586B06B
:1020800000AF00237B61464B1B68002B7ED1454B84
:102090001B6801333B61434A3B6913603B69002B7A
:1020A00010D1414B1B68FB60404B1B683E4A1360DC
:1020B0003E4AFB6813603E4B1B6801333C4A136089
:1020C00000F080FA3B4B1B683A699A4249D3364B81
:1020D0001B681B68002B04D1364B4FF0FF321A608F
:1020E0003FE0314B1B68DB68DB68BB60BB685B684B
:1020F0007B603A697B689A4203D22E4A7B68136000
:102100002FE0BB6804331846FFF79EF9BB689B6A53
:10211000002B04D0BB6818331846FFF795F9BB684D
:10212000DA6A254B1B689A4203D9BB68DB6A224AEC
:102130001360BB68DA6A13469B0013449B001F4A76
:102140001A44BB68043319461046FFF722F9BB68EE
:10215000DA6A1B4B1B68DB6A9A42B8D301237B61A6
:10216000B5E7174B1B68DA6A144913469B00134402
:102170009B000B441B68012B01D901237B61114B90
:102180001B68002B07D001237B6104E00E4B1B680A
:1021900001330D4A13607B6918461837BD4680BD70
:1021A0005401002030010020E4000020E80000205D
:1021B000440100204C010020340100205800002080
:1021C00054000020400100203C01002080B584B074
:1021D00000AF334B1B68002B03D0324B01221A6037
:1021E0005AE0304B00221A602F4B1B681B6BBB6000
:1021F0004FF0A5337B60BB681B687A689A4211D1A7
:10220000BB6804331B687A689A420BD1BB680833F9
:102210001B687A689A4205D1BB680C331B687A68E0
:102220009A4208D0204B1A681F4B1B68343319465A
:102230001046FFF772F81D4B1B68FB6002E0FB685D
:10224000013BFB601A49FA6813469B0013449B004C
:102250000B441B68002BF2D0FA6813469B00134412
:102260009B00134A13443B603B685B685A683B68B9
:102270005A603B685A683B6808339A4204D13B680D
:102280005B685A683B685A603B685B68DB68064A73
:102290001360064AFB68136000BF1037BD4680BD5F
:1022A000540100204001002054000020340100208F
:1022B0005800002080B582B000AF78603960074BCD
:1022C0001B68183319467868FFF786F801213868CB
:1022D00000F002FA00BF0837BD4680BD5400002060
:1022E00080B584B000AFF860B9607A600A4B1B68B3
:1022F00018331946F868FFF74CF87B68002B02D0BA
:102300004FF0FF33BB607968B86800F0E5F900BFB3
:102310001037BD4680BD00BF5400002080B584B09A
:1023200000AF78607B68DB68DB68BB60BB68183334
:102330001846FFF789F81E4B1B68002B1DD1BB68A0
:1023400004331846FFF780F8BB68DA6A194B1B683C
:102350009A4203D9BB68DB6A164A1360BB68DA6A23
:1023600013469B0013449B00134A1A44BB68043372
:1023700019461046FFF70DF805E0BB6818331946FB
:102380000E48FFF706F8BB68DA6A0D4B1B68DB6A7C
:102390009A4205D90123FB600A4B01221A6001E031
:1023A0000023FB60FB6818461037BD4680BD00BFA8
:1023B000540100203401002058000020EC000020CF
:1023C000540000204001002080B483B000AF78604A
:1023D000064B1A687B681A60054B1A687B685A605E
:1023E00000BF0C37BD4680BC704700BF44010020D1
:1023F0003001002080B586B000AF7860396000F011
:102400000BFD1D4B1B683B617B685B683A69D31A07
:10241000FB603B681B68B3F1FF3F02D100237B6187
:1024200023E07B681A68154B1B689A4207D07B68CB
:102430005B683A699A4202D301237B6115E03B68ED
:102440001B68FA689A420BD23B681A68FB68D21A7A
:102450003B681A607868FFF7B7FF00237B6104E0F0
:102460003B6800221A6001237B6100F0EFFC7B696E
:1024700018461837BD4680BD3001002044010020B9
:1024800080B400AF034B01221A6000BFBD4680BC80
:10249000704700BF4001002080B582B000AF786077
:1024A00000F052F8064B1B68012BF9D9054B4FF091
:1024B00080521A60BFF34F8FBFF36F8FF0E700BFFA
:1024C0005800002004ED00E080B582B000AF00238A
:1024D0007B600CE07A6813469B0013449B00124A11
:1024E00013441846FEF72AFF7B6801337B607B6844
:1024F000042BEFD90D48FEF721FF0D48FEF71EFF14
:102500000C48FEF71BFF0C48FEF718FF0B48FEF7C0
:1025100015FF0B4B054A1A600A4B054A1A6000BFAB
:102520000837BD4680BD00BF58000020BC00002019
:10253000D0000020EC000020000100201801002045
:10254000E4000020E800002080B582B000AF19E070
:1025500000F062FC104BDB68DB687B607B68043357
:102560001846FEF771FF0D4B1B68013B0B4A1360C9
:102570000B4B1B68013B0A4A136000F067FC78684C
:1025800000F010F8064B1B68002BE1D100BF00BF24
:102590000837BD4680BD00BF000100202C0100208F
:1025A0001401002080B582B000AF78607B681B6B9F
:1025B000184600F06DFD786800F06AFD00BF08372E
:1025C000BD4680BD80B483B000AF0C4B1B681B6858
:1025D000002B04D10A4B4FF0FF321A6008E0074B82
:1025E0001B68DB68DB687B607B685B68044A1360A0
:1025F00000BF0C37BD4680BC704700BFE400002020
:102600004C01002080B483B000AF0B4B1B68002B43
:1026100002D101237B6008E0084B1B68002B02D12C
:1026200002237B6001E000237B607B6818460C3747
:10263000BD4680BC704700BF380100205401002017
:1026400080B584B000AF78607B68BB600023FB601E
:102650007B68002B37D0BB689B6C5A1EBB689A64A2
:10266000BB68DA6ABB685B6C9A422CD0BB689B6C17
:10267000002B28D1BB6804331846FEF7E5FEBB6883
:102680005A6CBB68DA62BB68DB6AC3F10502BB68DF
:102690009A61BB68DA6A0E4B1B689A4203D9BB6821
:1026A000DB6A0B4A1360BB68DA6A13469B0013446B
:1026B0009B00084A1A44BB68043319461046FEF7CB
:1026C00068FE0123FB60FB6818461037BD4680BDDD
:1026D000340100205800002080B584B000AF78603D
:1026E0003960214B1B68FB60204B1B680433184684
:1026F000FEF7AAFE7B68B3F1FF3F0AD13B68002BCF
:1027000007D01A4B1B68043319461948FEF741FEDF
:1027100026E0FA687B681344BB60144B1B68BA68F8
:102720005A60BA68FB689A4209D2124B1A680F4B7A
:102730001B68043319461046FEF74EFE10E00E4BA0
:102740001A680A4B1B68043319461046FEF744FE0C
:102750000A4B1B68BA689A4202D2084ABB681360E7
:1027600000BF1037BD4680BD30010020540000205E
:1027700018010020E8000020E40000204C010020A7
:1027800080B584B002AF00237B6000F083FA0A4B6F
:102790001B68002B0BD0094B0193042300930023EB
:1027A0004FF4807206490748FFF730FA78607B687B
:1027B00018460837BD4680BD880100208C010020E6
:1027C00014360008C928000880B588B000AFF8604A
:1027D000B9607A603B600023FB611A4B1B68002BD9
:1027E0002AD0BB683B617B687B61FB68BB61BB68CF
:1027F000052B18DCFFF706FF0346022B09D1114B0E
:10280000186807F110010023BA6AFEF7E9FEF861C3
:1028100012E00C4B186807F1100100230022FEF7AC
:10282000DFFEF86108E0074B186807F1100100238C
:102830003A68FEF77FFFF861FB6918462037BD460E
:1028400080BD00BF8801002080B586B002AF7860EF
:1028500039601C4B1B68DB68DB68FB60FB6804337A
:102860001846FEF7F1FDFB6893F8243003F00403EB
:10287000002B15D0FB689A697B68D1187B683A6891
:10288000F86800F0C5F80346002B12D0002300932F
:1028900000237A680021F868FFF796FFB86008E027
:1028A000FB6893F8243023F00103DAB2FB6883F865
:1028B0002420FB681B6AF868984700BF1037BD46A4
:1028C00080BD00BF8001002080B584B000AF78607B
:1028D00007F10803184600F059F8F860BB6819467C
:1028E000F86800F005F800F0D5F800BFF0E7000048
:1028F00080B584B000AF78603960FFF715FB07F151
:102900000803184600F064F8F860BB68002B30D16B
:102910003B68002B0AD17A68FB689A4206D8FFF719
:1029200011FBF9687868FFF78FFF24E03B68002B04
:1029300008D0134B1B681B68002B01D1012300E05A
:1029400000233B600F4B18687A68FB68D31A3A681B
:102950001946FFF727F9FFF7F5FA0346002B0AD1CE
:10296000094B4FF080521A60BFF34F8FBFF36F8F48
:1029700001E0FFF7E7FA00BF1037BD4680BD00BF9A
:10298000840100208801002004ED00E080B485B0BF
:1029900000AF78600D4B1B681B68002B01D1012232
:1029A00000E000227B681A607B681B68002B05D161
:1029B000064B1B68DB681B68FB6001E00023FB60C3
:1029C000FB6818461437BD4680BC70478001002064
:1029D00080B584B000AF7860FFF742FBF8600B4B26
:1029E0001B68FA689A4205D200F0FEF87B68012263
:1029F0001A6002E07B6800221A60044AFB681360D8
:102A0000FB6818461037BD4680BD00BF900100200E
:102A100080B586B000AFF860B9607A603B60002393
:102A20007B61FB68BA685A60FB68FA681A61BA6829
:102A30007B689A4212D87A683B68D21AFB689B6915
:102A40009A4202D301237B611BE0104B1A68FB689A
:102A5000043319461046FEF7BFFC12E07A683B6863
:102A60009A4206D2BA683B689A4202D301237B613C
:102A700007E0074B1A68FB68043319461046FEF757
:102A8000ABFC7B6918461837BD4680BD8401002029
:102A90008001002080B58AB002AF92E0BB68002BB5
:102AA000C0F28F803B69FB61FB695B69002B04D03E
:102AB000FB6904331846FEF7C7FC3B1D1846FFF7B9
:102AC00087FFB861BB68092B78D801A252F823F0C0
:102AD000F92A0008F92A0008F92A0008532B0008EF
:102AE000672B0008932B0008F92A0008F92A000830
:102AF000532B0008672B0008FB6993F8243043F040
:102B00000103DAB2FB6983F82420FA68FB699B6948
:102B1000D118FB68BA69F869FFF77AFF0346002B02
:102B20004ED0FB691B6AF8699847FB6993F824301B
:102B300003F00403002B43D0FA68FB699B691A4435
:102B40000023009300230021F869FFF73DFE786120
:102B500036E0FB6993F8243023F00103DAB2FB6915
:102B600083F824202DE0FB6993F8243043F001031F
:102B7000DAB2FB6983F82420FA68FB699A61FB6981
:102B80009A69BB69D118BB69BA69F869FFF740FF58
:102B900017E0FB6993F8243003F00203002B03D104
:102BA000F86900F075FA0CE0FB6993F8243023F023
:102BB0000103DAB2FB6983F8242002E000BF00E0E1
:102BC00000BF084B1B6807F1080100221846FEF7FA
:102BD0000FFE0346002B7FF461AF00BF00BF20371C
:102BE000BD4680BD8801002080B588B002AF3AE0C4
:102BF000264B1B68DB681B683B61244B1B68DB684A
:102C0000DB68FB60FB6804331846FEF71DFCFB68BD
:102C10001B6AF8689847FB6893F8243003F00403B4
:102C2000002B20D0FB689B693A691344BB60BA68EB
:102C30003B699A420ED9FB68BA685A60FB68FA6829
:102C40001A61124B1A68FB68043319461046FEF7E6
:102C5000C3FB08E00023009300233A690021F868D1
:102C6000FFF7B2FD7860094B1B681B68002BBFD1D2
:102C7000064B1B687B61064B1B68044A1360044AC1
:102C80007B69136000BF1837BD4680BD80010020FE
:102C90008401002080B500AF00F0BEF8124B1B6825
:102CA000002B1DD11148FEF749FB1148FEF746FBEA
:102CB000104B0E4A1A60104B0D4A1A6000220C216C
:102CC0000A20FEF745FC0346074A1360064B1B68C3
:102CD000002B05D0044B1B6808491846FEF73AFF45
:102CE00000F0B4F800BF80BD88010020580100202A
:102CF0006C01002080010020840100201C360008A7
:102D000080B485B000AFF860B9607A60FB68043BBE
:102D1000FB60FB684FF080721A60FB68043BFB604D
:102D2000BB6823F00102FB681A60FB68043BFB6090
:102D3000084AFB681A60FB68143BFB607A68FB6812
:102D40001A60FB68203BFB60FB6818461437BD46E1
:102D500080BC7047592D000880B483B000AF0023B9
:102D60003B604FF0BF0383F31188BFF36F8FBFF356
:102D70004F8F7B6000BF00BF3B68002BFCD000BFC3
:102D800000BF0C37BD4680BC70470000000000004B
:102D9000074B19680868B0E8F00F80F30988BFF3A3
:102DA0006F8F4FF0000080F311884EF00D0E7047CA
:102DB0005400002000BF00BF06480068006880F390
:102DC000088862B661B6BFF34F8FBFF36F8F00DF25
:102DD00000BF00BF08ED00E080B500AF0C4B1B68E2
:102DE0000B4A43F47F031360094B1B68084A43F006
:102DF0007F43136000F08AF8064B00221A60FFF749
:102E0000DBFFFFF7E3F9FFF7A7FF0023184680BDBC
:102E100020ED00E00C00002080B483B000AF4FF044
:102E2000BF0383F31188BFF36F8FBFF34F8F7B60B6
:102E300000BF054B1B680133034A136000BF0C370A
:102E4000BD4680BC704700BF0C00002080B483B03A
:102E500000AF0A4B1B68013B084A1360074B1B6815
:102E6000002B05D100237B607B6883F3118800BFB2
:102E700000BF0C37BD4680BC704700BF0C0000206F
:102E8000EFF30980BFF36F8F0D4B1A6820E9F00F45
:102E9000106008B54FF0BF0080F31188FFF796F976
:102EA0004FF0000080F31188BDE8084019680868F9
:102EB000B0E8F00F80F30988BFF36F8F704700BF51
:102EC0005400002000BF00BF80B582B000AF4FF0BB
:102ED000BF0383F31188BFF36F8FBFF34F8F7B6006
:102EE00000BFFFF7CBF80346002B03D0064B4FF093
:102EF00080521A6000233B603B6883F3118800BF57
:102F000000BF0837BD4680BD04ED00E080B400AFCF
:102F10000A4B00221A600A4B00221A60094B1B68F8
:102F2000094AA2FB03239B09084A013B1360034B98
:102F300007221A6000BFBD4680BC704710E000E069
:102F400018E000E000000020D34D621014E000E023
:102F500080B586B000AF78600023FB60FEF7E4FF29
:102F6000454B1B68002B01D100F0D2F8434B1A6887
:102F70007B681340002B72D17B68002B0DD0082298
:102F80007B6813447B607B6803F00703002B04D04D
:102F90007B6823F0070308337B607B68002B5ED0DF
:102FA000374B1B687A689A4259D8364B3B61354B90
:102FB0001B687B6104E07B693B617B691B687B610B
:102FC0007B695B687A689A4203D97B691B68002B2E
:102FD000F1D1294B1B687A699A4240D03B691B6842
:102FE00008221344FB607B691A683B691A607B699D
:102FF0005A687B68D21A08235B009A420FD97A6913
:103000007B681344BB607B695A687B68D21ABB68D3
:103010005A607B697A685A60B86800F0DBF8184B30
:103020001A687B695B68D31A154A1360144B1A68D7
:10303000154B1B689A4203D2114B1B68124A13604E
:103040007B695A680D4B1B681A437B695A607B6920
:1030500000221A600D4B1B6801330C4A1360FEF707
:1030600071FFFB68002B01D1FEF748F9FB68184699
:103070001837BD4680BD00BF9C510020B0510020D4
:10308000A051002094510020A4510020A8510020FC
:1030900080B584B000AF78607B68FB607B68002BF4
:1030A0002CD008235B42FA681344FB60FB68BB60CA
:1030B000BB685A68134B1B681340002B1ED0BB68BB
:1030C0001B68002B1AD1BB685A680E4B1B68DB4388
:1030D0001A40BB685A60FEF727FFBB685A680A4B64
:1030E0001B681344084A1360B86800F073F8074B74
:1030F0001B680133054A1360FEF724FF00BF103739
:10310000BD4680BDB0510020A0510020AC51002030
:1031100080B485B000AF4FF4A043BB60274BFB6089
:10312000FB6803F00703002B0CD0FB680733FB6040
:10313000FB6823F00703FB60BA68FB68D31A1F4AD9
:103140001344BB60FB687B601D4A7B6813601C4BAB
:1031500000225A607B68BA681344FB600822FB684F
:103160009B1AFB60FB6823F00703FB60FB68154AB2
:103170001360144B1B6800225A60124B1B6800221C
:103180001A607B683B603B68FA68D21A3B685A60F9
:103190000C4B1A683B681A603B685B680A4A13600C
:1031A0003B685B68094A1360094B4FF000421A60A4
:1031B00000BF1437BD4680BC704700BF940100209B
:1031C000945100209C510020A4510020A0510020C7
:1031D000B051002080B485B000AF7860274BFB6011
:1031E00002E0FB681B68FB60FB681B687A689A4218
:1031F000F7D8FB68BB60FB685B68BA6813447A6801
:103200009A4208D1FB685A687B685B681A44FB687D
:103210005A60FB687B607B68BB607B685B68BA68F0
:103220001A44FB681B689A4218D1FB681A68144B51
:103230001B689A420DD07B685A68FB681B685B6804
:103240001A447B685A60FB681B681A687B681A60BE
:1032500008E00B4B1A687B681A6003E0FB681A6889
:103260007B681A60FA687B689A4202D0FB687A68C9
:103270001A6000BF1437BD4680BC704794510020CF
:103280009C5100202DE9F047089D0F4604468C46CE
:10329000002B48D18A42164661D9B2FA82F34BB16B
:1032A000C3F1200201FA03FC20FA02F29E4042EA36
:1032B0000C0C9C404FEA164EB7B2BCFBFEF1220C40
:1032C0000EFB11CC42EA0C4201FB07F0904209D9F7
:1032D000B21801F1FF3C80F0EE80904240F2EB80AA
:1032E00002393244121AA4B2B2FBFEF00EFB1022D5
:1032F00044EA024400FB07F7A74209D9341900F158
:10330000FF3280F0DA80A74240F2D780344402389E
:1033100040EA0140E41B00211DB1DC400023C5E967
:103320000043BDE8F0878B4206D90DB1C5E9000125
:1033300000210846BDE8F087B3FA83F1002948D19F
:10334000BB4202D3824200F20781841A67EB030278
:1033500001209446002DE4D0C5E9004CE1E7002AA5
:1033600000F09280B2FA82F3002B40F0A8808A1A13
:103370004FEA164E1FFA86FC0121200CB2FBFEF725
:103380000EFB172240EA02420CFB07F0904207D9DD
:10339000B21807F1FF3802D2904200F2E2804746AD
:1033A000121AA4B2B2FBFEF00EFB102244EA024451
:1033B0000CFB00FCA44507D9341900F1FF3202D2FE
:1033C000A44500F2CB801046A4EB0C0440EA074071
:1033D000A2E7C1F120068B4022FA06FC4CEA030C5E
:1033E00007FA01F420FA06F3F7404FEA1C49234399
:1033F00000FA01F81FFA8CFEB7FBF9F01C0C09FB70
:10340000107744EA074400FB0EF7A74202FA01F2E4
:103410000AD91CEB040400F1FF3A80F09B80A7421C
:1034200040F2988002386444E41B9FB2B4FBF9F385
:1034300009FB134447EA044403FB0EFEA64509D9E1
:103440001CEB040403F1FF3780F08280A6457FD98E
:10345000023B644443EA0040A4EB0E04A0FB02E7F5
:10346000BC427346B94663D360D05DB1B8EB03028A
:1034700064EB090404FA06F622FA01F31E43CC4079
:10348000C5E9006400214CE76208480842EAC171BE
:103490000B0C43EA00438AB242EA0342B3FBF6F163
:1034A000E407B4463746B6461F23B0FBF6F0D21BFE
:1034B00041EA004161E7614614E7104628E7C3F19D
:1034C000200120FA01F29E4027FA01F19F403A4381
:1034D0004FEA164E1FFA86FCB1FBFEF70EFB1710E3
:1034E000110C41EA004107FB0CF8884504FA03F48B
:1034F0003AD9711807F1FF3001D288451FD8A1EBE6
:103500000801B1FBFEF808FB0CF70EFB181192B294
:1035100042EA0142BA422FD2B21808F1FF31C6D2B4
:10352000BA42C4D2A8F102013244C0E7F0459CD2AD
:10353000BEEB020367EB0C070138B94695E7A6EB33
:1035400008084144B81EB1FBFEF808FB0CF7DCE7A5
:103550003B467FE7504667E70846FBE634440238BF
:1035600032E7023F32441BE7A1EB08013846B1FBCA
:10357000FEF808FB0CF7C8E7414698E7024403460B
:10358000934200D1704703F8011BF9E770B50D4B6A
:103590000D4D5B1B9C100026A64209D100F028F8B7
:1035A0000A4D0B4B5B1B9C100026A64205D170BD3B
:1035B00055F8043B98470136EEE755F8043B984729
:1035C0000136F2E7000000000000000000000000EB
:1035D000000000000A44914200F1FF3300D170471F
:1035E00010B511F8014B03F8014F9142F9D110BD0C
:1035F000F8B500BFF8BC08BC9E467047F8B500BFE0
:08360000F8BC08BC9E467047AF
:103608004C45440049444C4500000000546D72206C
:1036180053766300546D72510000000000000000F2
:0C3628000000000001020304060708096E
:0836340050FCFF7F01000000C3
:10363C000024F4001000000001000000AAAAAAAAAD
:040000050800124994
:00000001FF
